:1000000089C00000A2C00000A0C000009EC0000087
:100010009CC000009AC0000098C0000096C000007C
:1000200094C0000092C0000090C0000048C40000CE
:10003000EFC400008AC0000088C0000086C0000035
:1000400084C0000082C0000080C000007EC00000AC
:100050007CC000007AC0000078C0000076C00000BC
:1000600074C0000072C0000070C000006EC00000CC
:100070006CC000006A058C0570068C057006CE0504
:10008000F0057006420654061C034C00550046005D
:10009000410020004300440043002000440065006C
:1000A0006D006F00000018034400650061006E00E1
:1000B0002000430061006D006500720061000000D7
:1000C0000403090409023E00020100C032090400D1
:1000D00000010202010005240010010424020605AB
:1000E00024060001070582030800FF09040100023D
:1000F0000A0000000705040210000507058302102E
:1001000000051201100102000008EB034420010069
:100110000102DC0111241FBECFEFD4E0DEBFCDBF52
:1001200012E0A0E0B1E0E6E8F0E102C005900D9237
:10013000A63BB107D9F712E0A6EBB2E001C01D92D1
:10014000A13DB107E1F777D09CC75ACFCF93DF939A
:10015000CDB7DEB72A970FB6F894DEBF0FBECDBF7E
:100160006AE0CE0101960FD1882309F446C0898147
:10017000853548F48335E8F48934D9F08035C9F001
:100180008434D1F416C08936A1F028F4823641F0C7
:10019000843691F40EC0803761F0843769F409C069
:1001A000F89430D38FEF99EF0197F1F700C000007A
:1001B000F9CF8BE191E020C083E491E086D084E523
:1001C00091E083D08DE691E080D089E891E07DD008
:1001D00086EA91E07AD08EEA91E077D08FEC91E0D8
:1001E00074D080EF91E071D081E192E06ED084E331
:1001F00092E06BD084E692E068D02A960FB6F8942D
:10020000DEBF0FBECDBFDF91CF91089584B7877F4A
:1002100084BF88E10FB6F89480936000109260006C
:100220000FBE90E080E80FB6F89480936100909341
:1002300061000FBE35C3EADF66EB72E080E091E05B
:1002400056D6789480E091E01CD680E091E003D609
:1002500060D57CDFF7CF0895089580E091E075C503
:1002600080E091E058C6292F33272230310559F01C
:100270002330310569F021303105F9F482E190E055
:1002800022E031E01EC08EE390E024EC30E019C0A3
:1002900099278130910541F08230910541F0892BF9
:1002A00061F4E0ECF0E005C0E6EAF0E002C0E8E866
:1002B000F0E0849190E09F0104C080E090E020E0B5
:1002C00030E0FA01318320830895CF932091C80252
:1002D000243069F52091E9002F703091EC0030FF57
:1002E00002C030E801C030E0C32FC22B23E02093CE
:1002F000E900FC0101900020E9F7BF01615071099C
:10030000681B790B40E050E0B5D09091F2008091ED
:10031000E8008E778093E800903131F443D28091E9
:10032000E8008E778093E800CF70C093E900CF910A
:100330000895CF939091C802943019F59091E900F7
:100340009F702091EC0020FF02C020E801C020E057
:10035000C22FC92B93E09093E9008093F100909114
:10036000F2008091E8008E778093E800903131F4BC
:1003700019D28091E8008E778093E800CF70C09307
:10038000E900CF9108958F929F92AF92BF92CF9242
:10039000DF92EF92FF920F931F93CF93DF931F9201
:1003A000CDB7DEB78C01A12CE62EF12CB2D4809112
:1003B000C8028430D9F78093E9008091E80082FF79
:1003C000F5CF8091F20090E08A0D911D8E159F056A
:1003D00018F4812C912C22C08BE892E076DFF80192
:1003E000EE0DFF1D319710828091E8008B7780938E
:1003F000E80080E031C09091F100CB2CD12C9A30F4
:10040000B1F09D30A1F0892F998393DFF801EC0DB5
:10041000FD1D998190838FEF881A980AB82CBA0C29
:100420002091F20030E08216930628F30EC08091EE
:10043000E8008B778093E80082EB92E046DFF801DA
:10044000EC0DFD1D10828B2D07C08091E8008B778D
:100450008093E800AB2CAACF0F90DF91CF911F9132
:100460000F91FF90EF90DF90CF90BF90AF909F9053
:100470008F900895CF92DF92EF92FF920F931F9388
:10048000CF93DF937C018B01EA018CD1811130C0C5
:10049000209731F088819981081B190BE80EF91E0D
:1004A000C12CD12C0115110511F18091E80085FDB9
:1004B00013C08091E8008E778093E800209741F088
:1004C000888199818C0D9D1D9983888385E010C05A
:1004D00069D1882339F30CC0F70181917F018093A2
:1004E000F10001501109FFEFCF1ADF0ADBCF80E0E6
:1004F000DF91CF911F910F91FF90EF90DF90CF9000
:1005000008952091CF023091D0022617370748F086
:100510006115710539F42091E8002E772093E800E9
:1005200001C0B90120E061157105D1F13091C80217
:10053000332309F441C0353009F440C03091E8005C
:1005400033FD38C03091E80032FF06C08091E800EA
:1005500082FF29C080E008953091E80030FFE3CFAA
:100560002091F20030E0FC01281B390BCF01820FF3
:10057000931F6115710549F08830910530F4819120
:100580008093F10061507109F1CF21E0089709F0E3
:1005900020E08091E8008E778093E800CF01C3CF00
:1005A0002111C4CFD3CF8091C802882329F0853090
:1005B00069F604C081E0089582E0089583E008951B
:1005C0002091CF023091D0022617370748F06115ED
:1005D000710539F42091E8002E772093E80001C0DE
:1005E000B90120E061157105D9F13091C8023323BA
:1005F00009F442C0353009F441C03091E80033FDC0
:1006000039C03091E80032FF06C08091E80082FFD7
:100610002AC080E008953091E80030FFE3CF2091B8
:10062000F20030E0FC01281B390BC9018E0F9F1F1F
:100630006115710551F08830910538F484918093EB
:10064000F100319661507109F0CF21E0089709F06F
:1006500020E08091E8008E778093E800CF01C2CF40
:100660002111C3CFD2CF8091C802882329F08530D1
:1006700061F604C081E0089582E0089583E0089562
:10068000982F953058F59093E900981739F07091AC
:10069000EC002091ED005091F00003C0242F762F44
:1006A00050E021FF19C03091EB003E7F3093EB000A
:1006B0003091ED003D7F3093ED003091EB003160E3
:1006C0003093EB007093EC002093ED005093F0001A
:1006D0002091EE0027FF07C09F5FD3CF8F708093DC
:1006E000E90081E0089580E008950F931F93CF9370
:1006F000DF93062FEC0110E0101769F19881992320
:1007000039F12C81E981FA816B81892F8F708530D5
:1007100010F080E021C0223010F056E001C052E01D
:1007200028E030E040E02E173F0720F44F5F220F13
:10073000331FF9CF4295407F452B991F9927991F69
:100740006295660F660F607C692B9ADF882309F338
:100750001F5F2596D1CF81E0DF91CF911F910F913F
:1007600008958091C90287FD05C08091E80080FF4F
:100770000EC012C08091E80082FD05C08091C802C1
:100780008111F8CF08958091E8008B7708C080919F
:10079000C8028111EACF08958091E8008E77809396
:1007A000E80008958091E4009091E50045E62091ED
:1007B000EC0020FF21C02091E80020FD21C0209105
:1007C000C802222389F0253089F02091EB0025FD15
:1007D0000FC02091E4003091E5002817390739F364
:1007E000415041F0C901E3CF82E0089583E00895CC
:1007F00081E0089584E008952091E80022FFDFCF92
:1008000080E0089556D058D0E0EEF0E0808181601D
:100810008083E8EDF0E080818F77808319BCE3E688
:10082000F0E08081816080831092C702089541D0FA
:1008300043D08091D8008F778093D8008091D800E2
:1008400080688093D8008091D8008F7D8093D800F5
:1008500084E089BD86E089BD09B400FEFDCF109219
:10086000C8021092C4021092C6021092C50242E061
:1008700060E080E005DF8091E1008E7F8093E10001
:100880008091E20081608093E2008091E2008860C4
:100890008093E2008091E0008E7F8093E0000895D5
:1008A000E3E6F0E080818E7F808381E08093C70261
:1008B000BECF1092E20008951092E10008951F92B9
:1008C0000F920FB60F9211242F933F934F935F9384
:1008D0006F937F938F939F93AF93BF93EF93FF9308
:1008E0008091E10082FF0AC08091E20082FF06C091
:1008F0008091E1008B7F8093E1000AD28091E1003A
:1009000080FF17C08091E20080FF13C08091E20059
:100910008E7F8093E2008091E20080618093E2000C
:100920008091D80080628093D80019BC1092C802D0
:1009300093DC8091E10084FF2FC08091E20084FF6E
:100940002BC084E089BD86E089BD09B400FEFDCFDF
:100950008091D8008F7D8093D8008091E1008F7EB8
:100960008093E1008091E2008F7E8093E20080918D
:10097000E20081608093E2008091C402882311F03C
:1009800084E007C08091E30087FF02C083E001C0DC
:1009900081E08093C8025FDC8091E10083FF27C083
:1009A0008091E20083FF23C08091E100877F8093E4
:1009B000E10082E08093C8021092C4028091E100BD
:1009C0008E7F8093E1008091E2008E7F8093E20031
:1009D0008091E20080618093E20042E060E080E08C
:1009E0004FDE8091F00088608093F00091D1FF91FC
:1009F000EF91BF91AF919F918F917F916F915F9197
:100A00004F913F912F910F900FBE0F901F9018950F
:100A10001F920F920FB60F9211242F933F934F9373
:100A20005F936F937F938F939F93AF93BF93CF9376
:100A3000EF93FF93C091E900CF708091EC0010928A
:100A4000E9008091F000877F8093F00078941BD0BC
:100A50001092E9008091F00088608093F000C093CC
:100A6000E900FF91EF91CF91BF91AF919F918F914D
:100A70007F916F915F914F913F912F910F900FBE9A
:100A80000F901F9018951F93CF93DF93CDB7DEB7CC
:100A9000AA970FB6F894DEBF0FBECDBFE9ECF2E027
:100AA0008091F100819322E0E13DF207C9F7D8DBA4
:100AB0008091E80083FF14C12091C9023091CA02DD
:100AC000832F90E08A30910508F00AC1FC01E65CB2
:100AD000FF4FD1C2203881F0223809F001C1809146
:100AE000CD028F708093E9008091EB0085FB882711
:100AF00080F91092E90006C08091C5029091C6026B
:100B0000911182609091E800977F9093E800809324
:100B1000F1001092F100C1C0822F8D7F09F0E0C07A
:100B2000222319F0223061F0DBC08091CB028130AA
:100B300009F0D6C0333009F080E08093C60228C0A7
:100B40008091CB02811124C02091CD022F7009F435
:100B5000C7C02093E9008091EB0080FF19C080910D
:100B6000EB00333011F4806211C080618093EB00A0
:100B700081E090E0022E01C0880F0A94EAF780938A
:100B8000EA001092EA008091EB0088608093EB000D
:100B90001092E9008091E800877F82C02111A0C0F7
:100BA0001091CB021F778091E3008078812B809396
:100BB000E3008091E800877F8093E800D2DD809198
:100BC000E80080FFFCCF8091E30080688093E30021
:100BD000112311F083E001C082E08093C80280C03D
:100BE0002058223008F07CC08091CB029091CC023A
:100BF0008C3D23E0920771F583E08A838AE2898342
:100C00004FB7F894DE01139620E03EE051E2E32F67
:100C1000F0E050935700E49120FF03C0E295EF709D
:100C20003F5FEF708E2F90E0EA3010F0C79601C062
:100C3000C0968D939D932F5F243149F74FBF8091CC
:100C4000E800877F8093E8006AE270E0CE010196B9
:100C500058DC12C0AE014F5F5F4F6091CD0203DBE5
:100C6000009709F43DC02091E800277F2093E80019
:100C7000BC0189819A81A4DC8091E8008B77809304
:100C8000E8002EC0203861F58091E800877F8093CE
:100C9000E8008091C4028093F1008091E8008E7793
:100CA0008093E8005EDD1CC021111AC09091CB0238
:100CB0009230B0F48091E800877F8093E8009093B1
:100CC000C4024FDD8091C402811104C08091E30011
:100CD00087FF02C084E001C081E08093C802BDDAD2
:100CE0008091E80083FF0AC08091E800877F8093AD
:100CF000E8008091EB0080628093EB00AA960FB62B
:100D0000F894DEBF0FBECDBFDF91CF911F91089544
:100D10000895CF938091C8028823A9F08091E900BB
:100D20008F709091EC0090FF02C090E801C090E0BD
:100D3000C92FC82B1092E9008091E80083FDA3DE43
:100D4000CF70C093E900CF910895CF93DF93EC016A
:100D5000FC0170968BE0DF011D928A95E9F782E035
:100D60008C83898783E08E8761E0CE010196BDDCAC
:100D7000882361F061E0CE010696B7DC882331F06C
:100D800061E0CE010B96DF91CF91AFCC80E0DF9197
:100D9000CF910895CF93C62F2091C8022430F1F44B
:100DA000FC014489558966897789452B462B472B59
:100DB000A9F081818F708093E9008091E80085FF20
:100DC00004C0C093F10080E00AC08091E8008E77F3
:100DD0008093E800E7DC8823A1F301C082E0CF9193
:100DE0000895FB01682F84859585D4DF21E030E0EC
:100DF000811102C020E030E088279927821B930BE5
:100E000008952091C802243021F5FC0144895589B8
:100E100066897789452B462B472BD9F081818F70C6
:100E20008093E9008091F200882389F09091E80096
:100E30008091E8008E778093E80095FD08C0B2DCD1
:100E4000811108C08091E8008E778093E80080E0EF
:100E5000089582E008952091C802243089F4FC01AD
:100E60004489558966897789452B462B472B41F064
:100E700021812F702093E9002091E80020FDC1CF4F
:100E800008952091C802243019F08FEF9FEF089544
:100E9000FC014489558966897789452B462B472B68
:100EA000A1F386818F708093E9008091E80082FF32
:100EB000ECCF8091F200882321F02091F10030E006
:100EC00002C02FEF3FEF8091F200811105C08091A9
:100ED000E8008B778093E800C9010895FC018485C0
:100EE0009585CFDF97FF02C08EEF9FEF0895FB013E
:100EF0002EE0DB011D922A95E9F723E0238321EF01
:100F000036E0318720872EE637E0338722879587C2
:100F1000848708950895CF93DF93EC018091E800D2
:100F200083FFA6C0888190E02091CD023091CE024F
:100F30002817390709F09CC08091CA02813261F0FC
:100F400020F4803209F43EC093C0823209F46CC0B0
:100F5000833209F47DC08CC08091C902813A09F0C6
:100F600087C08091E800877F8093E8008091E80047
:100F700080FFFCCF4C895D896E897F894093F100A9
:100F8000BB27A72F962F852F8093F100CB01AA278F
:100F9000BB278093F100472F55276627772740937B
:100FA000F100888D8093F100898D8093F1008A8D06
:100FB0008093F1008091E8008E778093E800DF91C4
:100FC000CF91CFCB8091C902813209F051C080917D
:100FD000E800877F8093E8008091E80082FD05C0EB
:100FE0008091C8028111F8CF43C03091F100209167
:100FF000F1009091F1008091F1003C8B2D8B9E8B44
:101000008F8B8091F100888F8091F100898F809182
:10101000F1008A8F8091E8008B778093E800A1DB54
:10102000CE01DF91CF9176CF8091C902813201F557
:101030008091E800877F8093E80093DB8091CB026A
:101040009091CC02998B888BCE01DF91CF9162CFAA
:101050008091C902813261F48091E800877F80939A
:10106000E8007FDB6091CB02CE01DF91CF9152CFC0
:10107000DF91CF910895EE0FFF1F0590F491E02DC1
:061080000994F894FFCF73
:101086000083100000010410000001820800000126
:101096000000000000000000000000546869732092
:1010A60066756E6B74696F6E206973206E6F74203F
:1010B600696D706C656D656E746564207965742EF6
:1010C6000D0A0043384831304E344F32206D656E7C
:1010D600750D0A0020683A207072696E7420746873
:1010E6006973206D6573736167650D0A0020623A46
:1010F60020656E74657220426F6F746C6F616465F3
:1011060072206D6F64650D0A0020533A2070726973
:101116006E742063757272656E742073657474697B
:101126006E67730D0A002D2D2D2D2D0D0A002070D2
:101136002F503A20696E6372656173652F6465632B
:1011460072656173652070206761696E0D0A002003
:10115600692F493A20696E6372656173652F64650C
:101166006372656173652069206761696E0D0A00A7
:1011760020642F443A20696E6372656173652F643B
:10118600656372656173652064206761696E0D0A27
:101196000020742F543A20696E6372656173652F5F
:1011A600646563726561736520736574706F696EDB
:1011B600740D0A0020723A207265736574205049D6
:1011C6004420636F6E66696775726174696F6E201D
:1011D600746F2064656661756C742076616C7565E4
:1011E600730D0A0020733A207361766520504944D6
:1011F60020636F6E66696775726174696F6E2074BD
:101206006F20454550524F4D0D0A000D0A4572722A
:101216006F722072656164696E6720696E7075749D
:101226003A2042756666657220746F20736D616C34
:061236006C210D0A00000E
:00000001FF
